{
  "abi": [
    {
      "type": "constructor",
      "inputs": [
        {
          "name": "provider",
          "type": "address",
          "internalType": "contract IPoolAddressesProvider"
        },
        {
          "name": "assets",
          "type": "address[]",
          "internalType": "address[]"
        },
        {
          "name": "sources",
          "type": "address[]",
          "internalType": "address[]"
        },
        {
          "name": "fallbackOracle",
          "type": "address",
          "internalType": "address"
        },
        {
          "name": "baseCurrency",
          "type": "address",
          "internalType": "address"
        },
        {
          "name": "baseCurrencyUnit",
          "type": "uint256",
          "internalType": "uint256"
        }
      ],
      "stateMutability": "nonpayable"
    },
    {
      "type": "function",
      "name": "ADDRESSES_PROVIDER",
      "inputs": [],
      "outputs": [
        {
          "name": "",
          "type": "address",
          "internalType": "contract IPoolAddressesProvider"
        }
      ],
      "stateMutability": "view"
    },
    {
      "type": "function",
      "name": "BASE_CURRENCY",
      "inputs": [],
      "outputs": [
        {
          "name": "",
          "type": "address",
          "internalType": "address"
        }
      ],
      "stateMutability": "view"
    },
    {
      "type": "function",
      "name": "BASE_CURRENCY_UNIT",
      "inputs": [],
      "outputs": [
        {
          "name": "",
          "type": "uint256",
          "internalType": "uint256"
        }
      ],
      "stateMutability": "view"
    },
    {
      "type": "function",
      "name": "getAssetPrice",
      "inputs": [
        {
          "name": "asset",
          "type": "address",
          "internalType": "address"
        }
      ],
      "outputs": [
        {
          "name": "",
          "type": "uint256",
          "internalType": "uint256"
        }
      ],
      "stateMutability": "view"
    },
    {
      "type": "function",
      "name": "getAssetsPrices",
      "inputs": [
        {
          "name": "assets",
          "type": "address[]",
          "internalType": "address[]"
        }
      ],
      "outputs": [
        {
          "name": "",
          "type": "uint256[]",
          "internalType": "uint256[]"
        }
      ],
      "stateMutability": "view"
    },
    {
      "type": "function",
      "name": "getFallbackOracle",
      "inputs": [],
      "outputs": [
        {
          "name": "",
          "type": "address",
          "internalType": "address"
        }
      ],
      "stateMutability": "view"
    },
    {
      "type": "function",
      "name": "getSourceOfAsset",
      "inputs": [
        {
          "name": "asset",
          "type": "address",
          "internalType": "address"
        }
      ],
      "outputs": [
        {
          "name": "",
          "type": "address",
          "internalType": "address"
        }
      ],
      "stateMutability": "view"
    },
    {
      "type": "function",
      "name": "setAssetSources",
      "inputs": [
        {
          "name": "assets",
          "type": "address[]",
          "internalType": "address[]"
        },
        {
          "name": "sources",
          "type": "address[]",
          "internalType": "address[]"
        }
      ],
      "outputs": [],
      "stateMutability": "nonpayable"
    },
    {
      "type": "function",
      "name": "setFallbackOracle",
      "inputs": [
        {
          "name": "fallbackOracle",
          "type": "address",
          "internalType": "address"
        }
      ],
      "outputs": [],
      "stateMutability": "nonpayable"
    },
    {
      "type": "event",
      "name": "AssetSourceUpdated",
      "inputs": [
        {
          "name": "asset",
          "type": "address",
          "indexed": true,
          "internalType": "address"
        },
        {
          "name": "source",
          "type": "address",
          "indexed": true,
          "internalType": "address"
        }
      ],
      "anonymous": false
    },
    {
      "type": "event",
      "name": "BaseCurrencySet",
      "inputs": [
        {
          "name": "baseCurrency",
          "type": "address",
          "indexed": true,
          "internalType": "address"
        },
        {
          "name": "baseCurrencyUnit",
          "type": "uint256",
          "indexed": false,
          "internalType": "uint256"
        }
      ],
      "anonymous": false
    },
    {
      "type": "event",
      "name": "FallbackOracleUpdated",
      "inputs": [
        {
          "name": "fallbackOracle",
          "type": "address",
          "indexed": true,
          "internalType": "address"
        }
      ],
      "anonymous": false
    },
    {
      "type": "error",
      "name": "CallerNotAssetListingOrPoolAdmin",
      "inputs": []
    },
    {
      "type": "error",
      "name": "InconsistentParamsLength",
      "inputs": []
    }
  ],
  "bytecode": {
    "object": "0x60e060405234801561000f575f5ffd5b50604051610d86380380610d8683398101604081905261002e916102eb565b6001600160a01b038616608052610044836100a0565b61004e85856100e9565b6001600160a01b03821660a081905260c08290526040518281527fe27c4c1372396a3d15a9922f74f9dfc7c72b1ad6d63868470787249c356454c19060200160405180910390a25050505050506103a6565b600180546001600160a01b0319166001600160a01b0383169081179091556040517fce7a780d33665b1ea097af5f155e3821b809ecbaa839d3b33aa83ba28168cefb905f90a250565b805182511461010b57604051630d10f63b60e01b815260040160405180910390fd5b5f5b82518110156102085781818151811061012857610128610392565b60200260200101515f5f85848151811061014457610144610392565b60200260200101516001600160a01b03166001600160a01b031681526020019081526020015f205f6101000a8154816001600160a01b0302191690836001600160a01b031602179055508181815181106101a0576101a0610392565b60200260200101516001600160a01b03168382815181106101c3576101c3610392565b60200260200101516001600160a01b03167f22c5b7b2d8561d39f7f210b6b326a1aa69f15311163082308ac4877db6339dc160405160405180910390a360010161010d565b505050565b6001600160a01b0381168114610221575f5ffd5b50565b634e487b7160e01b5f52604160045260245ffd5b80516102438161020d565b919050565b5f82601f830112610257575f5ffd5b81516001600160401b0381111561027057610270610224565b604051600582901b90603f8201601f191681016001600160401b038111828210171561029e5761029e610224565b6040529182526020818501810192908101868411156102bb575f5ffd5b6020860192505b838310156102e1576102d383610238565b8152602092830192016102c2565b5095945050505050565b5f5f5f5f5f5f60c08789031215610300575f5ffd5b865161030b8161020d565b60208801519096506001600160401b03811115610326575f5ffd5b61033289828a01610248565b604089015190965090506001600160401b0381111561034f575f5ffd5b61035b89828a01610248565b945050606087015161036c8161020d565b608088015190935061037d8161020d565b8092505060a087015190509295509295509295565b634e487b7160e01b5f52603260045260245ffd5b60805160a05160c0516109a26103e45f395f8181610103015261034d01525f81816101a9015261032201525f8181609901526104dc01526109a25ff3fe608060405234801561000f575f5ffd5b5060043610610090575f3560e01c806392bf2be01161006357806392bf2be0146101335780639d23d9f21461015e578063abfd53101461017e578063b3596f0714610191578063e19f4700146101a4575f5ffd5b80630542975c14610094578063170aee73146100d85780636210308c146100ed5780638c89b64f146100fe575b5f5ffd5b6100bb7f000000000000000000000000000000000000000000000000000000000000000081565b6040516001600160a01b0390911681526020015b60405180910390f35b6100eb6100e63660046107cc565b6101cb565b005b6001546001600160a01b03166100bb565b6101257f000000000000000000000000000000000000000000000000000000000000000081565b6040519081526020016100cf565b6100bb6101413660046107cc565b6001600160a01b039081165f908152602081905260409020541690565b61017161016c36600461082f565b6101df565b6040516100cf919061086e565b6100eb61018c3660046108b0565b610288565b61012561019f3660046107cc565b610301565b6100bb7f000000000000000000000000000000000000000000000000000000000000000081565b6101d36104d9565b6101dc8161064b565b50565b60605f8267ffffffffffffffff8111156101fb576101fb61091c565b604051908082528060200260200182016040528015610224578160200160208202803683370190505b5090505f5b838110156102805761025b85858381811061024657610246610930565b905060200201602081019061019f91906107cc565b82828151811061026d5761026d610930565b6020908102919091010152600101610229565b509392505050565b6102906104d9565b6102fb8484808060200260200160405190810160405280939291908181526020018383602002808284375f92019190915250506040805160208088028281018201909352878252909350879250869182918501908490808284375f9201919091525061069492505050565b50505050565b6001600160a01b038082165f818152602081905260408120549092908116917f0000000000000000000000000000000000000000000000000000000000000000909116900361037257507f000000000000000000000000000000000000000000000000000000000000000092915050565b6001600160a01b0381166103f35760015460405163b3596f0760e01b81526001600160a01b0385811660048301529091169063b3596f0790602401602060405180830381865afa1580156103c8573d5f5f3e3d5ffd5b505050506040513d601f19601f820116820180604052508101906103ec9190610944565b9392505050565b5f816001600160a01b03166350d25bcd6040518163ffffffff1660e01b8152600401602060405180830381865afa158015610430573d5f5f3e3d5ffd5b505050506040513d601f19601f820116820180604052508101906104549190610944565b90505f811315610465579392505050565b60015460405163b3596f0760e01b81526001600160a01b0386811660048301529091169063b3596f0790602401602060405180830381865afa1580156104ad573d5f5f3e3d5ffd5b505050506040513d601f19601f820116820180604052508101906104d19190610944565b949350505050565b5f7f00000000000000000000000000000000000000000000000000000000000000006001600160a01b031663707cd7166040518163ffffffff1660e01b8152600401602060405180830381865afa158015610536573d5f5f3e3d5ffd5b505050506040513d601f19601f8201168201806040525081019061055a919061095b565b604051629f719760e51b81523360048201529091506001600160a01b038216906313ee32e090602401602060405180830381865afa15801561059e573d5f5f3e3d5ffd5b505050506040513d601f19601f820116820180604052508101906105c29190610976565b8061062e5750604051637be53ca160e01b81523360048201526001600160a01b03821690637be53ca190602401602060405180830381865afa15801561060a573d5f5f3e3d5ffd5b505050506040513d601f19601f8201168201806040525081019061062e9190610976565b6101dc57604051630e8e140f60e21b815260040160405180910390fd5b600180546001600160a01b0319166001600160a01b0383169081179091556040517fce7a780d33665b1ea097af5f155e3821b809ecbaa839d3b33aa83ba28168cefb905f90a250565b80518251146106b657604051630d10f63b60e01b815260040160405180910390fd5b5f5b82518110156107b3578181815181106106d3576106d3610930565b60200260200101515f5f8584815181106106ef576106ef610930565b60200260200101516001600160a01b03166001600160a01b031681526020019081526020015f205f6101000a8154816001600160a01b0302191690836001600160a01b0316021790555081818151811061074b5761074b610930565b60200260200101516001600160a01b031683828151811061076e5761076e610930565b60200260200101516001600160a01b03167f22c5b7b2d8561d39f7f210b6b326a1aa69f15311163082308ac4877db6339dc160405160405180910390a36001016106b8565b505050565b6001600160a01b03811681146101dc575f5ffd5b5f602082840312156107dc575f5ffd5b81356103ec816107b8565b5f5f83601f8401126107f7575f5ffd5b50813567ffffffffffffffff81111561080e575f5ffd5b6020830191508360208260051b8501011115610828575f5ffd5b9250929050565b5f5f60208385031215610840575f5ffd5b823567ffffffffffffffff811115610856575f5ffd5b610862858286016107e7565b90969095509350505050565b602080825282518282018190525f918401906040840190835b818110156108a5578351835260209384019390920191600101610887565b509095945050505050565b5f5f5f5f604085870312156108c3575f5ffd5b843567ffffffffffffffff8111156108d9575f5ffd5b6108e5878288016107e7565b909550935050602085013567ffffffffffffffff811115610904575f5ffd5b610910878288016107e7565b95989497509550505050565b634e487b7160e01b5f52604160045260245ffd5b634e487b7160e01b5f52603260045260245ffd5b5f60208284031215610954575f5ffd5b5051919050565b5f6020828403121561096b575f5ffd5b81516103ec816107b8565b5f60208284031215610986575f5ffd5b815180151581146103ec575f5ffdfea164736f6c634300081b000a",
    "linkReferences": {}
  },
  "methodIdentifiers": {
    "ADDRESSES_PROVIDER()": "0542975c",
    "BASE_CURRENCY()": "e19f4700",
    "BASE_CURRENCY_UNIT()": "8c89b64f",
    "getAssetPrice(address)": "b3596f07",
    "getAssetsPrices(address[])": "9d23d9f2",
    "getFallbackOracle()": "6210308c",
    "getSourceOfAsset(address)": "92bf2be0",
    "setAssetSources(address[],address[])": "abfd5310",
    "setFallbackOracle(address)": "170aee73"
  },
  "id": 180
}