{
  "abi": [
    {
      "type": "constructor",
      "inputs": [
        {
          "name": "pool",
          "type": "address",
          "internalType": "contract IPool"
        },
        {
          "name": "rewardsController",
          "type": "address",
          "internalType": "address"
        },
        {
          "name": "treasury",
          "type": "address",
          "internalType": "address"
        }
      ],
      "stateMutability": "nonpayable"
    },
    {
      "type": "function",
      "name": "ATOKEN_REVISION",
      "inputs": [],
      "outputs": [
        {
          "name": "",
          "type": "uint256",
          "internalType": "uint256"
        }
      ],
      "stateMutability": "view"
    },
    {
      "type": "function",
      "name": "DOMAIN_SEPARATOR",
      "inputs": [],
      "outputs": [
        {
          "name": "",
          "type": "bytes32",
          "internalType": "bytes32"
        }
      ],
      "stateMutability": "view"
    },
    {
      "type": "function",
      "name": "EIP712_REVISION",
      "inputs": [],
      "outputs": [
        {
          "name": "",
          "type": "bytes",
          "internalType": "bytes"
        }
      ],
      "stateMutability": "view"
    },
    {
      "type": "function",
      "name": "PERMIT_TYPEHASH",
      "inputs": [],
      "outputs": [
        {
          "name": "",
          "type": "bytes32",
          "internalType": "bytes32"
        }
      ],
      "stateMutability": "view"
    },
    {
      "type": "function",
      "name": "POOL",
      "inputs": [],
      "outputs": [
        {
          "name": "",
          "type": "address",
          "internalType": "contract IPool"
        }
      ],
      "stateMutability": "view"
    },
    {
      "type": "function",
      "name": "RESERVE_TREASURY_ADDRESS",
      "inputs": [],
      "outputs": [
        {
          "name": "",
          "type": "address",
          "internalType": "address"
        }
      ],
      "stateMutability": "view"
    },
    {
      "type": "function",
      "name": "REWARDS_CONTROLLER",
      "inputs": [],
      "outputs": [
        {
          "name": "",
          "type": "address",
          "internalType": "contract IAaveIncentivesController"
        }
      ],
      "stateMutability": "view"
    },
    {
      "type": "function",
      "name": "TREASURY",
      "inputs": [],
      "outputs": [
        {
          "name": "",
          "type": "address",
          "internalType": "address"
        }
      ],
      "stateMutability": "view"
    },
    {
      "type": "function",
      "name": "UNDERLYING_ASSET_ADDRESS",
      "inputs": [],
      "outputs": [
        {
          "name": "",
          "type": "address",
          "internalType": "address"
        }
      ],
      "stateMutability": "view"
    },
    {
      "type": "function",
      "name": "allowance",
      "inputs": [
        {
          "name": "owner",
          "type": "address",
          "internalType": "address"
        },
        {
          "name": "spender",
          "type": "address",
          "internalType": "address"
        }
      ],
      "outputs": [
        {
          "name": "",
          "type": "uint256",
          "internalType": "uint256"
        }
      ],
      "stateMutability": "view"
    },
    {
      "type": "function",
      "name": "approve",
      "inputs": [
        {
          "name": "spender",
          "type": "address",
          "internalType": "address"
        },
        {
          "name": "amount",
          "type": "uint256",
          "internalType": "uint256"
        }
      ],
      "outputs": [
        {
          "name": "",
          "type": "bool",
          "internalType": "bool"
        }
      ],
      "stateMutability": "nonpayable"
    },
    {
      "type": "function",
      "name": "balanceOf",
      "inputs": [
        {
          "name": "user",
          "type": "address",
          "internalType": "address"
        }
      ],
      "outputs": [
        {
          "name": "",
          "type": "uint256",
          "internalType": "uint256"
        }
      ],
      "stateMutability": "view"
    },
    {
      "type": "function",
      "name": "burn",
      "inputs": [
        {
          "name": "from",
          "type": "address",
          "internalType": "address"
        },
        {
          "name": "receiverOfUnderlying",
          "type": "address",
          "internalType": "address"
        },
        {
          "name": "amount",
          "type": "uint256",
          "internalType": "uint256"
        },
        {
          "name": "scaledAmount",
          "type": "uint256",
          "internalType": "uint256"
        },
        {
          "name": "index",
          "type": "uint256",
          "internalType": "uint256"
        }
      ],
      "outputs": [
        {
          "name": "",
          "type": "bool",
          "internalType": "bool"
        }
      ],
      "stateMutability": "nonpayable"
    },
    {
      "type": "function",
      "name": "decimals",
      "inputs": [],
      "outputs": [
        {
          "name": "",
          "type": "uint8",
          "internalType": "uint8"
        }
      ],
      "stateMutability": "view"
    },
    {
      "type": "function",
      "name": "decreaseAllowance",
      "inputs": [
        {
          "name": "spender",
          "type": "address",
          "internalType": "address"
        },
        {
          "name": "subtractedValue",
          "type": "uint256",
          "internalType": "uint256"
        }
      ],
      "outputs": [
        {
          "name": "",
          "type": "bool",
          "internalType": "bool"
        }
      ],
      "stateMutability": "nonpayable"
    },
    {
      "type": "function",
      "name": "getIncentivesController",
      "inputs": [],
      "outputs": [
        {
          "name": "",
          "type": "address",
          "internalType": "contract IAaveIncentivesController"
        }
      ],
      "stateMutability": "view"
    },
    {
      "type": "function",
      "name": "getPreviousIndex",
      "inputs": [
        {
          "name": "user",
          "type": "address",
          "internalType": "address"
        }
      ],
      "outputs": [
        {
          "name": "",
          "type": "uint256",
          "internalType": "uint256"
        }
      ],
      "stateMutability": "view"
    },
    {
      "type": "function",
      "name": "getScaledUserBalanceAndSupply",
      "inputs": [
        {
          "name": "user",
          "type": "address",
          "internalType": "address"
        }
      ],
      "outputs": [
        {
          "name": "",
          "type": "uint256",
          "internalType": "uint256"
        },
        {
          "name": "",
          "type": "uint256",
          "internalType": "uint256"
        }
      ],
      "stateMutability": "view"
    },
    {
      "type": "function",
      "name": "increaseAllowance",
      "inputs": [
        {
          "name": "spender",
          "type": "address",
          "internalType": "address"
        },
        {
          "name": "addedValue",
          "type": "uint256",
          "internalType": "uint256"
        }
      ],
      "outputs": [
        {
          "name": "",
          "type": "bool",
          "internalType": "bool"
        }
      ],
      "stateMutability": "nonpayable"
    },
    {
      "type": "function",
      "name": "initialize",
      "inputs": [
        {
          "name": "initializingPool",
          "type": "address",
          "internalType": "contract IPool"
        },
        {
          "name": "underlyingAsset",
          "type": "address",
          "internalType": "address"
        },
        {
          "name": "aTokenDecimals",
          "type": "uint8",
          "internalType": "uint8"
        },
        {
          "name": "aTokenName",
          "type": "string",
          "internalType": "string"
        },
        {
          "name": "aTokenSymbol",
          "type": "string",
          "internalType": "string"
        },
        {
          "name": "params",
          "type": "bytes",
          "internalType": "bytes"
        }
      ],
      "outputs": [],
      "stateMutability": "nonpayable"
    },
    {
      "type": "function",
      "name": "mint",
      "inputs": [
        {
          "name": "caller",
          "type": "address",
          "internalType": "address"
        },
        {
          "name": "onBehalfOf",
          "type": "address",
          "internalType": "address"
        },
        {
          "name": "scaledAmount",
          "type": "uint256",
          "internalType": "uint256"
        },
        {
          "name": "index",
          "type": "uint256",
          "internalType": "uint256"
        }
      ],
      "outputs": [
        {
          "name": "",
          "type": "bool",
          "internalType": "bool"
        }
      ],
      "stateMutability": "nonpayable"
    },
    {
      "type": "function",
      "name": "mintToTreasury",
      "inputs": [
        {
          "name": "scaledAmount",
          "type": "uint256",
          "internalType": "uint256"
        },
        {
          "name": "index",
          "type": "uint256",
          "internalType": "uint256"
        }
      ],
      "outputs": [],
      "stateMutability": "nonpayable"
    },
    {
      "type": "function",
      "name": "name",
      "inputs": [],
      "outputs": [
        {
          "name": "",
          "type": "string",
          "internalType": "string"
        }
      ],
      "stateMutability": "view"
    },
    {
      "type": "function",
      "name": "nonces",
      "inputs": [
        {
          "name": "owner",
          "type": "address",
          "internalType": "address"
        }
      ],
      "outputs": [
        {
          "name": "",
          "type": "uint256",
          "internalType": "uint256"
        }
      ],
      "stateMutability": "view"
    },
    {
      "type": "function",
      "name": "permit",
      "inputs": [
        {
          "name": "owner",
          "type": "address",
          "internalType": "address"
        },
        {
          "name": "spender",
          "type": "address",
          "internalType": "address"
        },
        {
          "name": "value",
          "type": "uint256",
          "internalType": "uint256"
        },
        {
          "name": "deadline",
          "type": "uint256",
          "internalType": "uint256"
        },
        {
          "name": "v",
          "type": "uint8",
          "internalType": "uint8"
        },
        {
          "name": "r",
          "type": "bytes32",
          "internalType": "bytes32"
        },
        {
          "name": "s",
          "type": "bytes32",
          "internalType": "bytes32"
        }
      ],
      "outputs": [],
      "stateMutability": "nonpayable"
    },
    {
      "type": "function",
      "name": "rescueTokens",
      "inputs": [
        {
          "name": "token",
          "type": "address",
          "internalType": "address"
        },
        {
          "name": "to",
          "type": "address",
          "internalType": "address"
        },
        {
          "name": "amount",
          "type": "uint256",
          "internalType": "uint256"
        }
      ],
      "outputs": [],
      "stateMutability": "nonpayable"
    },
    {
      "type": "function",
      "name": "scaledBalanceOf",
      "inputs": [
        {
          "name": "user",
          "type": "address",
          "internalType": "address"
        }
      ],
      "outputs": [
        {
          "name": "",
          "type": "uint256",
          "internalType": "uint256"
        }
      ],
      "stateMutability": "view"
    },
    {
      "type": "function",
      "name": "scaledTotalSupply",
      "inputs": [],
      "outputs": [
        {
          "name": "",
          "type": "uint256",
          "internalType": "uint256"
        }
      ],
      "stateMutability": "view"
    },
    {
      "type": "function",
      "name": "symbol",
      "inputs": [],
      "outputs": [
        {
          "name": "",
          "type": "string",
          "internalType": "string"
        }
      ],
      "stateMutability": "view"
    },
    {
      "type": "function",
      "name": "totalSupply",
      "inputs": [],
      "outputs": [
        {
          "name": "",
          "type": "uint256",
          "internalType": "uint256"
        }
      ],
      "stateMutability": "view"
    },
    {
      "type": "function",
      "name": "transfer",
      "inputs": [
        {
          "name": "recipient",
          "type": "address",
          "internalType": "address"
        },
        {
          "name": "amount",
          "type": "uint256",
          "internalType": "uint256"
        }
      ],
      "outputs": [
        {
          "name": "",
          "type": "bool",
          "internalType": "bool"
        }
      ],
      "stateMutability": "nonpayable"
    },
    {
      "type": "function",
      "name": "transferFrom",
      "inputs": [
        {
          "name": "sender",
          "type": "address",
          "internalType": "address"
        },
        {
          "name": "recipient",
          "type": "address",
          "internalType": "address"
        },
        {
          "name": "amount",
          "type": "uint256",
          "internalType": "uint256"
        }
      ],
      "outputs": [
        {
          "name": "",
          "type": "bool",
          "internalType": "bool"
        }
      ],
      "stateMutability": "nonpayable"
    },
    {
      "type": "function",
      "name": "transferOnLiquidation",
      "inputs": [
        {
          "name": "from",
          "type": "address",
          "internalType": "address"
        },
        {
          "name": "to",
          "type": "address",
          "internalType": "address"
        },
        {
          "name": "amount",
          "type": "uint256",
          "internalType": "uint256"
        },
        {
          "name": "scaledAmount",
          "type": "uint256",
          "internalType": "uint256"
        },
        {
          "name": "index",
          "type": "uint256",
          "internalType": "uint256"
        }
      ],
      "outputs": [],
      "stateMutability": "nonpayable"
    },
    {
      "type": "function",
      "name": "transferUnderlyingTo",
      "inputs": [
        {
          "name": "target",
          "type": "address",
          "internalType": "address"
        },
        {
          "name": "amount",
          "type": "uint256",
          "internalType": "uint256"
        }
      ],
      "outputs": [],
      "stateMutability": "nonpayable"
    },
    {
      "type": "event",
      "name": "Approval",
      "inputs": [
        {
          "name": "owner",
          "type": "address",
          "indexed": true,
          "internalType": "address"
        },
        {
          "name": "spender",
          "type": "address",
          "indexed": true,
          "internalType": "address"
        },
        {
          "name": "value",
          "type": "uint256",
          "indexed": false,
          "internalType": "uint256"
        }
      ],
      "anonymous": false
    },
    {
      "type": "event",
      "name": "BalanceTransfer",
      "inputs": [
        {
          "name": "from",
          "type": "address",
          "indexed": true,
          "internalType": "address"
        },
        {
          "name": "to",
          "type": "address",
          "indexed": true,
          "internalType": "address"
        },
        {
          "name": "value",
          "type": "uint256",
          "indexed": false,
          "internalType": "uint256"
        },
        {
          "name": "index",
          "type": "uint256",
          "indexed": false,
          "internalType": "uint256"
        }
      ],
      "anonymous": false
    },
    {
      "type": "event",
      "name": "Burn",
      "inputs": [
        {
          "name": "from",
          "type": "address",
          "indexed": true,
          "internalType": "address"
        },
        {
          "name": "target",
          "type": "address",
          "indexed": true,
          "internalType": "address"
        },
        {
          "name": "value",
          "type": "uint256",
          "indexed": false,
          "internalType": "uint256"
        },
        {
          "name": "balanceIncrease",
          "type": "uint256",
          "indexed": false,
          "internalType": "uint256"
        },
        {
          "name": "index",
          "type": "uint256",
          "indexed": false,
          "internalType": "uint256"
        }
      ],
      "anonymous": false
    },
    {
      "type": "event",
      "name": "Initialized",
      "inputs": [
        {
          "name": "underlyingAsset",
          "type": "address",
          "indexed": true,
          "internalType": "address"
        },
        {
          "name": "pool",
          "type": "address",
          "indexed": true,
          "internalType": "address"
        },
        {
          "name": "treasury",
          "type": "address",
          "indexed": false,
          "internalType": "address"
        },
        {
          "name": "incentivesController",
          "type": "address",
          "indexed": false,
          "internalType": "address"
        },
        {
          "name": "aTokenDecimals",
          "type": "uint8",
          "indexed": false,
          "internalType": "uint8"
        },
        {
          "name": "aTokenName",
          "type": "string",
          "indexed": false,
          "internalType": "string"
        },
        {
          "name": "aTokenSymbol",
          "type": "string",
          "indexed": false,
          "internalType": "string"
        },
        {
          "name": "params",
          "type": "bytes",
          "indexed": false,
          "internalType": "bytes"
        }
      ],
      "anonymous": false
    },
    {
      "type": "event",
      "name": "Mint",
      "inputs": [
        {
          "name": "caller",
          "type": "address",
          "indexed": true,
          "internalType": "address"
        },
        {
          "name": "onBehalfOf",
          "type": "address",
          "indexed": true,
          "internalType": "address"
        },
        {
          "name": "value",
          "type": "uint256",
          "indexed": false,
          "internalType": "uint256"
        },
        {
          "name": "balanceIncrease",
          "type": "uint256",
          "indexed": false,
          "internalType": "uint256"
        },
        {
          "name": "index",
          "type": "uint256",
          "indexed": false,
          "internalType": "uint256"
        }
      ],
      "anonymous": false
    },
    {
      "type": "event",
      "name": "Transfer",
      "inputs": [
        {
          "name": "from",
          "type": "address",
          "indexed": true,
          "internalType": "address"
        },
        {
          "name": "to",
          "type": "address",
          "indexed": true,
          "internalType": "address"
        },
        {
          "name": "value",
          "type": "uint256",
          "indexed": false,
          "internalType": "uint256"
        }
      ],
      "anonymous": false
    },
    {
      "type": "error",
      "name": "CallerMustBePool",
      "inputs": []
    },
    {
      "type": "error",
      "name": "CallerNotPoolAdmin",
      "inputs": []
    },
    {
      "type": "error",
      "name": "ECDSAInvalidSignature",
      "inputs": []
    },
    {
      "type": "error",
      "name": "ECDSAInvalidSignatureLength",
      "inputs": [
        {
          "name": "length",
          "type": "uint256",
          "internalType": "uint256"
        }
      ]
    },
    {
      "type": "error",
      "name": "ECDSAInvalidSignatureS",
      "inputs": [
        {
          "name": "s",
          "type": "bytes32",
          "internalType": "bytes32"
        }
      ]
    },
    {
      "type": "error",
      "name": "ERC20InsufficientAllowance",
      "inputs": [
        {
          "name": "spender",
          "type": "address",
          "internalType": "address"
        },
        {
          "name": "allowance",
          "type": "uint256",
          "internalType": "uint256"
        },
        {
          "name": "needed",
          "type": "uint256",
          "internalType": "uint256"
        }
      ]
    },
    {
      "type": "error",
      "name": "InvalidBurnAmount",
      "inputs": []
    },
    {
      "type": "error",
      "name": "InvalidExpiration",
      "inputs": []
    },
    {
      "type": "error",
      "name": "InvalidMintAmount",
      "inputs": []
    },
    {
      "type": "error",
      "name": "InvalidSignature",
      "inputs": []
    },
    {
      "type": "error",
      "name": "PoolAddressesDoNotMatch",
      "inputs": []
    },
    {
      "type": "error",
      "name": "SafeCastOverflowedUintDowncast",
      "inputs": [
        {
          "name": "bits",
          "type": "uint8",
          "internalType": "uint8"
        },
        {
          "name": "value",
          "type": "uint256",
          "internalType": "uint256"
        }
      ]
    },
    {
      "type": "error",
      "name": "UnderlyingCannotBeRescued",
      "inputs": []
    },
    {
      "type": "error",
      "name": "ZeroAddressNotValid",
      "inputs": []
    }
  ],
  "bytecode": {
    "object": "0x6101206040525f5f55348015610013575f5ffd5b50604051612d0c380380612d0c833981016040819052610032916101b0565b828282826040518060400160405280600b81526020016a105513d2d15397d253541360aa1b8152506040518060400160405280600b81526020016a105513d2d15397d253541360aa1b8152505f858484848484848484848461009861019460201b60201c565b5f81905550846001600160a01b0316630542975c6040518163ffffffff1660e01b8152600401602060405180830381865afa1580156100d9573d5f5f3e3d5ffd5b505050506040513d601f19601f820116820180604052508101906100fd91906101fa565b6001600160a01b0316608052603761011585826102b4565b50603861012284826102b4565b506039805460ff191660ff93909316929092179091556001600160a01b0393841660a052831660c05250504660e0528b16995061017c9850505050505050505057604051633bf95ba760e01b815260040160405180910390fd5b6001600160a01b0316610100525061036e9350505050565b600490565b6001600160a01b03811681146101ad575f5ffd5b50565b5f5f5f606084860312156101c2575f5ffd5b83516101cd81610199565b60208501519093506101de81610199565b60408501519092506101ef81610199565b809150509250925092565b5f6020828403121561020a575f5ffd5b815161021581610199565b9392505050565b634e487b7160e01b5f52604160045260245ffd5b600181811c9082168061024457607f821691505b60208210810361026257634e487b7160e01b5f52602260045260245ffd5b50919050565b601f8211156102af57805f5260205f20601f840160051c8101602085101561028d5750805b601f840160051c820191505b818110156102ac575f8155600101610299565b50505b505050565b81516001600160401b038111156102cd576102cd61021c565b6102e1816102db8454610230565b84610268565b6020601f821160018114610313575f83156102fc5750848201515b5f19600385901b1c1916600184901b1784556102ac565b5f84815260208120601f198516915b828110156103425787850151825560209485019460019092019101610322565b508482101561035f57868401515f19600387901b60f8161c191681555b50505050600190811b01905550565b60805160a05160c05160e051610100516128c061044c5f395f81816102b301528181610455015281816109f10152610c3d01525f6116b801525f81816103a8015281816104bd01528181610c5e01528181611d4a01528181611d8901528181611e1f01528181611fad0152611fe901525f81816103840152818161065a01528181610704015281816107d60152818161087f015281816109080152818161097f015281816109d001528181610ae201528181610be801528181610d2a01528181610dc101528181611295015261139201525f610e2201526128c05ff3fe608060405234801561000f575f5ffd5b50600436106101fd575f3560e01c80637816037611610114578063b16a19de116100a9578063cd086d4511610079578063cd086d45146104b8578063cea9d26f146104df578063d505accf146104f2578063dd62ed3e14610505578063e07539861461053d575f5ffd5b8063b16a19de14610479578063b18d6afd1461048a578063b1bf962d1461049d578063b3f1c93d146104a5575f5ffd5b806395d89b41116100e457806395d89b4114610425578063a457c2d71461042d578063a9059cbb14610440578063ae16733514610453575f5ffd5b806378160376146103cc5780637df5bd3b146103ec5780637ecebe00146103ff5780637fdd585f14610412575f5ffd5b806330adf81f11610195578063395093511161016557806339509351146103465780634efecaa51461035957806370a082311461036c5780637535d2461461037f57806375d26413146103a6575f5ffd5b806330adf81f146102ed578063313ce56714610314578063353b7b9a146103295780633644e5151461033e575f5ffd5b806318160ddd116101d057806318160ddd146102805780631da24f3e1461028857806323b872dd1461029b5780632d2c5565146102ae575f5ffd5b806306fdde0314610201578063095ea7b31461021f5780630afbcdc9146102425780630bd7ad3b1461026a575b5f5ffd5b610209610575565b6040516102169190612266565b60405180910390f35b61023261022d36600461228f565b610605565b6040519015158152602001610216565b6102556102503660046122b9565b61061b565b60408051928352602083019190915201610216565b610272600481565b604051908152602001610216565b610272610632565b6102726102963660046122b9565b6106d4565b6102326102a93660046122d4565b6106de565b6102d57f000000000000000000000000000000000000000000000000000000000000000081565b6040516001600160a01b039091168152602001610216565b6102727f6e71edae12b1b97f4d1f60370fef10105fa2faae0126114a169c64845d6126c981565b60395460405160ff9091168152602001610216565b61033c610337366004612312565b6107d3565b005b610272610838565b61023261035436600461228f565b610841565b61033c61036736600461228f565b61087c565b61027261037a3660046122b9565b6108e0565b6102d57f000000000000000000000000000000000000000000000000000000000000000081565b7f00000000000000000000000000000000000000000000000000000000000000006102d5565b610209604051806040016040528060018152602001603160f81b81525081565b61033c6103fa36600461235f565b61097c565b61027261040d3660046122b9565b610a1f565b61033c6104203660046123d9565b610a3c565b610209610cbf565b61023261043b36600461228f565b610cce565b61023261044e36600461228f565b610d04565b7f00000000000000000000000000000000000000000000000000000000000000006102d5565b603d546001600160a01b03166102d5565b610232610498366004612312565b610d26565b610272610db3565b6102326104b33660046124ae565b610dbd565b6102d57f000000000000000000000000000000000000000000000000000000000000000081565b61033c6104ed3660046122d4565b610e1f565b61033c6105003660046124f1565b610f7e565b61027261051336600461255b565b6001600160a01b039182165f90815260356020908152604080832093909416825291909152205490565b61027261054b3660046122b9565b6001600160a01b03165f90815260346020526040902054600160801b90046001600160801b031690565b60606037805461058490612592565b80601f01602080910402602001604051908101604052809291908181526020018280546105b090612592565b80156105fb5780601f106105d2576101008083540402835291602001916105fb565b820191905f5260205f20905b8154815290600101906020018083116105de57829003601f168201915b5050505050905090565b5f61061133848461110e565b5060015b92915050565b5f5f6106268361116e565b60365491509150915091565b603d5460405163d15e005360e01b81526001600160a01b0391821660048201525f916106cf917f00000000000000000000000000000000000000000000000000000000000000009091169063d15e005390602401602060405180830381865afa1580156106a1573d5f5f3e3d5ffd5b505050506040513d601f19601f820116820180604052508101906106c591906125c4565b6036545b90611191565b905090565b5f6106158261116e565b603d5460405163d15e005360e01b81526001600160a01b0391821660048201525f9182917f00000000000000000000000000000000000000000000000000000000000000009091169063d15e005390602401602060405180830381865afa15801561074b573d5f5f3e3d5ffd5b505050506040513d601f19601f8201168201806040525081019061076f91906125c4565b90505f61077b8661116e565b90506107b486338661079b8661079183826111a3565b6106c990886125ef565b6107a58688611191565b6107af91906125ef565b6111ae565b6107c786866107c287611237565b61126e565b50600195945050505050565b337f00000000000000000000000000000000000000000000000000000000000000006001600160a01b03161461081c57604051632a59ce7160e11b815260040160405180910390fd5b61083185858561082b86611237565b856113f3565b5050505050565b5f6106cf6116b5565b335f8181526035602090815260408083206001600160a01b03871684529091528120549091610611918590610877908690612602565b61110e565b337f00000000000000000000000000000000000000000000000000000000000000006001600160a01b0316146108c557604051632a59ce7160e11b815260040160405180910390fd5b603d546108dc906001600160a01b031683836116ec565b5050565b603d5460405163d15e005360e01b81526001600160a01b0391821660048201525f91610615917f00000000000000000000000000000000000000000000000000000000000000009091169063d15e005390602401602060405180830381865afa15801561094f573d5f5f3e3d5ffd5b505050506040513d601f19601f8201168201806040525081019061097391906125c4565b6106c98461116e565b337f00000000000000000000000000000000000000000000000000000000000000006001600160a01b0316146109c557604051632a59ce7160e11b815260040160405180910390fd5b81156108dc57610a1a7f00000000000000000000000000000000000000000000000000000000000000007f00000000000000000000000000000000000000000000000000000000000000008484611191611774565b505050565b6001600160a01b0381165f908152603a6020526040812054610615565b60015460049060ff1680610a4f5750303b155b80610a5a57505f5481115b610ac25760405162461bcd60e51b815260206004820152602e60248201527f436f6e747261637420696e7374616e63652068617320616c726561647920626560448201526d195b881a5b9a5d1a585b1a5e995960921b60648201526084015b60405180910390fd5b60015460ff16158015610ae0576001805460ff1916811790555f8290555b7f00000000000000000000000000000000000000000000000000000000000000006001600160a01b03168b6001600160a01b031614610b3257604051634c2b89eb60e01b815260040160405180910390fd5b610b7088888080601f0160208091040260200160405190810160405280939291908181526020018383808284375f920191909152506118f492505050565b610bae86868080601f0160208091040260200160405190810160405280939291908181526020018383808284375f9201919091525061190092505050565b6039805460ff191660ff8b16179055603d80546001600160a01b0319166001600160a01b038c16179055610be061190c565b603b819055507f00000000000000000000000000000000000000000000000000000000000000006001600160a01b03168a6001600160a01b03167fb19e051f8af41150ccccb3fc2c2d8d15f4a4cf434f32a559ba75fe73d6eea20b7f00000000000000000000000000000000000000000000000000000000000000007f00000000000000000000000000000000000000000000000000000000000000008d8d8d8d8d8d8d604051610c999998979695949392919061263d565b60405180910390a38015610cb2576001805460ff191690555b5050505050505050505050565b60606038805461058490612592565b335f8181526035602090815260408083206001600160a01b038716845290915281205490916106119185906108779086906125ef565b5f5f610d0f83611237565b9050610d1c33858361126e565b5060019392505050565b5f337f00000000000000000000000000000000000000000000000000000000000000006001600160a01b031614610d7057604051632a59ce7160e11b815260040160405180910390fd5b5f610d80878786866111916119b4565b90506001600160a01b0386163014610da957603d54610da9906001600160a01b031687876116ec565b9695505050505050565b5f6106cf60365490565b5f337f00000000000000000000000000000000000000000000000000000000000000006001600160a01b031614610e0757604051632a59ce7160e11b815260040160405180910390fd5b610e1685858585611191611774565b95945050505050565b5f7f00000000000000000000000000000000000000000000000000000000000000006001600160a01b031663707cd7166040518163ffffffff1660e01b8152600401602060405180830381865afa158015610e7c573d5f5f3e3d5ffd5b505050506040513d601f19601f82011682018060405250810190610ea091906126aa565b90506001600160a01b038116637be53ca1336040516001600160e01b031960e084901b1681526001600160a01b039091166004820152602401602060405180830381865afa158015610ef4573d5f5f3e3d5ffd5b505050506040513d601f19601f82011682018060405250810190610f1891906126c5565b610f355760405163cdd36a9760e01b815260040160405180910390fd5b603d546001600160a01b0390811690851603610f645760405163bf9cb8bb60e01b815260040160405180910390fd5b610f786001600160a01b03851684846116ec565b50505050565b6001600160a01b038716610fa557604051633bf95ba760e01b815260040160405180910390fd5b83421115610fc657604051637d9533a960e11b815260040160405180910390fd5b6001600160a01b0387165f908152603a602052604081205490610fe7610838565b604080517f6e71edae12b1b97f4d1f60370fef10105fa2faae0126114a169c64845d6126c960208201526001600160a01b03808d1692820192909252908a1660608201526080810189905260a0810184905260c0810188905260e0016040516020818303038152906040528051906020012060405160200161108092919061190160f01b81526002810192909252602282015260420190565b6040516020818303038152906040528051906020012090506110a481868686611bd8565b6001600160a01b0316896001600160a01b0316146110d557604051638baa579f60e01b815260040160405180910390fd5b6110e0826001612602565b6001600160a01b038a165f908152603a602052604090205561110389898961110e565b505050505050505050565b6001600160a01b038381165f8181526035602090815260408083209487168084529482529182902085905590518481527f8c5be1e5ebec7d5bd14f71427d1e84f3dd0314c0f7b2291e5b200ac8c7c3b925910160405180910390a3505050565b6001600160a01b03165f908152603460205260409020546001600160781b031690565b5f61119c8383611c04565b9392505050565b5f61119c8383611c2b565b6001600160a01b038085165f908152603560209081526040808320938716835292905220548281101561120d57604051637dc7a0d960e11b81526001600160a01b03851660048201526024810182905260448101849052606401610ab9565b5f8282101561121c578161121e565b825b905061122f868661087784866125ef565b505050505050565b5f6001600160781b0382111561126a576040516306dfcc6560e41b81526078600482015260248101839052604401610ab9565b5090565b603d5460405163d15e005360e01b81526001600160a01b0391821660048201819052915f917f00000000000000000000000000000000000000000000000000000000000000009091169063d15e005390602401602060405180830381865afa1580156112dc573d5f5f3e3d5ffd5b505050506040513d601f19601f8201168201806040525081019061130091906125c4565b90505f61130c8661116e565b90505f6113188661116e565b90505f61132e6001600160781b038716856111a3565b905061134e8888886001600160781b031661134885611237565b886113f3565b60405163d5ed393360e01b81526001600160a01b03868116600483015289811660248301528881166044830152606482018390526084820185905260a482018490527f0000000000000000000000000000000000000000000000000000000000000000169063d5ed39339060c4015f604051808303815f87803b1580156113d3575f5ffd5b505af11580156113e5573d5f5f3e3d5ffd5b505050505050505050505050565b5f6113fd8661116e565b6001600160a01b0387165f9081526034602052604081205491925090611434908390600160801b90046001600160801b0316611191565b61143e8385611191565b61144891906125ef565b90505f6114548761116e565b6001600160a01b0388165f908152603460205260408120549192509061148b908390600160801b90046001600160801b0316611191565b6114958387611191565b61149f91906125ef565b90506114aa85611c6e565b6001600160a01b038a165f90815260346020526040902080546001600160801b03928316600160801b0292169190911790556114e585611c6e565b6001600160a01b0389165f90815260346020526040902080546001600160801b03928316600160801b029216919091179055611522898988611ca1565b8215611590576040518381526001600160a01b038a16905f905f5160206128945f395f51905f529060200160405180910390a3604080518481526020810185905280820187905290516001600160a01b038b169133915f5160206128745f395f51905f529181900360600190a35b876001600160a01b0316896001600160a01b0316141580156115b157505f81115b1561161e576040518181526001600160a01b038916905f905f5160206128945f395f51905f529060200160405180910390a3604080518281526020810183905280820187905290516001600160a01b038a169133915f5160206128745f395f51905f529181900360600190a35b876001600160a01b0316896001600160a01b03165f5160206128945f395f51905f528960405161165091815260200190565b60405180910390a3604080516001600160781b0388168152602081018790526001600160a01b03808b1692908c16917f4beccb90f994c31aced7a23b5611020728a23d8ec5cddd1a3e9d97b96fda8666910160405180910390a3505050505050505050565b5f7f000000000000000000000000000000000000000000000000000000000000000046036116e45750603b5490565b6106cf61190c565b60405163a9059cbb60e01b8082526001600160a01b038416600483015260248201839052905f8060448382895af1611726573d5f5f3e3d5ffd5b5061173084611e8d565b610f785760405162461bcd60e51b815260206004820152601560248201527423a83b191d103330b4b632b2103a3930b739b332b960591b6044820152606401610ab9565b5f835f036117955760405163199f5a0360e31b815260040160405180910390fd5b5f61179f8661116e565b90505f6117b96117af8388612602565b868663ffffffff16565b6001600160a01b0388165f90815260346020526040812054919250906117f4908490600160801b90046001600160801b031663ffffffff8816565b90505f8161180685898963ffffffff16565b61181091906125ef565b905061181b87611c6e565b6001600160a01b038a165f90815260346020526040902080546001600160801b03928316600160801b02921691909117905561185f8961185a8a611237565b611f30565b5f61186a83856125ef565b9050896001600160a01b03165f6001600160a01b03165f5160206128945f395f51905f528360405161189e91815260200190565b60405180910390a360408051828152602081018490529081018990526001600160a01b03808c1691908d16905f5160206128745f395f51905f529060600160405180910390a35050911598975050505050505050565b60376108dc828261273c565b60386108dc828261273c565b5f7f8b73c3c69bb8fe3d512ecc4cf759cc79239f7b179b0ffacaa9a75d522b39400f611936612055565b805160209182012060408051808201825260018152603160f81b90840152805192830193909352918101919091527fc89efdaa54c0f20c7adf612882df0950f5a951637e0307cdcb4c672f298b8bc660608201524660808201523060a082015260c00160405160208183030381529060405280519060200120905090565b5f835f036119d5576040516302075cc160e41b815260040160405180910390fd5b5f6119df8761116e565b90505f6119ef6117af87846125ef565b6001600160a01b0389165f9081526034602052604081205491925090611a2a908490600160801b90046001600160801b031663ffffffff8816565b90505f81611a3c85898963ffffffff16565b611a4691906125ef565b9050611a5187611c6e565b6001600160a01b038b165f90815260346020526040902080546001600160801b03928316600160801b029216919091179055611a958a611a908a611237565b61205f565b81831115611b25575f611aa883856125ef565b90508a6001600160a01b03165f6001600160a01b03165f5160206128945f395f51905f5283604051611adc91815260200190565b60405180910390a360408051828152602081018490529081018990526001600160a01b038c169081905f5160206128745f395f51905f529060600160405180910390a350611bbf565b5f611b3084846125ef565b90505f6001600160a01b03168b6001600160a01b03165f5160206128945f395f51905f5283604051611b6491815260200190565b60405180910390a360408051828152602081018490529081018990526001600160a01b03808c1691908d16907f4cf25bc1d991c17529c25213d3cc0cda295eeaad5f13f361969b12ea48015f909060600160405180910390a3505b611bc988856125ef565b159a9950505050505050505050565b5f5f5f5f611be8888888886120a3565b925092509250611bf8828261216b565b50909695505050505050565b5f815f1904831115821517611c17575f5ffd5b506b033b2e3c9fd0803ce800000091020490565b5f8115744f3a68dbc8f03f243baf513267aa9a3ee524f8e02884111715611c50575f5ffd5b506b033b2e3c9fd0803ce80000009190910281810491900615150190565b5f6001600160801b0382111561126a576040516306dfcc6560e41b81526080600482015260248101839052604401610ab9565b6001600160a01b0383165f908152603460205260409020546001600160781b0316611ccc82826127f7565b6001600160a01b038581165f9081526034602052604080822080546001600160781b0319166001600160781b039586161790559186168152205416611d118382612816565b6001600160a01b038581165f90815260346020526040902080546001600160781b0319166001600160781b0393909316929092179091557f00000000000000000000000000000000000000000000000000000000000000001615610831576036546040516318c39f1760e11b81526001600160a01b037f000000000000000000000000000000000000000000000000000000000000000016906331873e2e90611dc290899085908890600401612835565b5f604051808303815f87803b158015611dd9575f5ffd5b505af1158015611deb573d5f5f3e3d5ffd5b50505050846001600160a01b0316866001600160a01b03161461122f576040516318c39f1760e11b81526001600160a01b037f000000000000000000000000000000000000000000000000000000000000000016906331873e2e90611e5890889085908790600401612835565b5f604051808303815f87803b158015611e6f575f5ffd5b505af1158015611e81573d5f5f3e3d5ffd5b50505050505050505050565b5f611eaf565b62461bcd60e51b5f52602060045280602452508060445260645ffd5b3d8015611eee5760208114611f1f57611ee97f475076323a206d616c666f726d6564207472616e7366657220726573756c7400601f611e93565b611f2a565b823b611f1657611f167311d41d8c8e881b9bdd08184818dbdb9d1c9858dd60621b6014611e93565b60019150611f2a565b3d5f5f3e5f51151591505b50919050565b603654611f466001600160781b03831682612602565b6036556001600160a01b0383165f908152603460205260409020546001600160781b0316611f748382612816565b6001600160a01b038581165f90815260346020526040902080546001600160781b0319166001600160781b0393909316929092179091557f00000000000000000000000000000000000000000000000000000000000000001615610f78576040516318c39f1760e11b81526001600160a01b037f000000000000000000000000000000000000000000000000000000000000000016906331873e2e9061202290879086908690600401612835565b5f604051808303815f87803b158015612039575f5ffd5b505af115801561204b573d5f5f3e3d5ffd5b5050505050505050565b60606106cf610575565b6036546120756001600160781b038316826125ef565b6036556001600160a01b0383165f908152603460205260409020546001600160781b0316611f7483826127f7565b5f80807f7fffffffffffffffffffffffffffffff5d576e7357a4501ddfe92f46681b20a08411156120dc57505f91506003905082612161565b604080515f808252602082018084528a905260ff891692820192909252606081018790526080810186905260019060a0016020604051602081039080840390855afa15801561212d573d5f5f3e3d5ffd5b5050604051601f1901519150506001600160a01b03811661215857505f925060019150829050612161565b92505f91508190505b9450945094915050565b5f82600381111561217e5761217e61285f565b03612187575050565b600182600381111561219b5761219b61285f565b036121b95760405163f645eedf60e01b815260040160405180910390fd5b60028260038111156121cd576121cd61285f565b036121ee5760405163fce698f760e01b815260048101829052602401610ab9565b60038260038111156122025761220261285f565b036108dc576040516335e2f38360e21b815260048101829052602401610ab9565b5f81518084525f5b818110156122475760208185018101518683018201520161222b565b505f602082860101526020601f19601f83011685010191505092915050565b602081525f61119c6020830184612223565b6001600160a01b038116811461228c575f5ffd5b50565b5f5f604083850312156122a0575f5ffd5b82356122ab81612278565b946020939093013593505050565b5f602082840312156122c9575f5ffd5b813561119c81612278565b5f5f5f606084860312156122e6575f5ffd5b83356122f181612278565b9250602084013561230181612278565b929592945050506040919091013590565b5f5f5f5f5f60a08688031215612326575f5ffd5b853561233181612278565b9450602086013561234181612278565b94979496505050506040830135926060810135926080909101359150565b5f5f60408385031215612370575f5ffd5b50508035926020909101359150565b803560ff8116811461238f575f5ffd5b919050565b5f5f83601f8401126123a4575f5ffd5b50813567ffffffffffffffff8111156123bb575f5ffd5b6020830191508360208285010111156123d2575f5ffd5b9250929050565b5f5f5f5f5f5f5f5f5f60c08a8c0312156123f1575f5ffd5b89356123fc81612278565b985060208a013561240c81612278565b975061241a60408b0161237f565b965060608a013567ffffffffffffffff811115612435575f5ffd5b6124418c828d01612394565b90975095505060808a013567ffffffffffffffff811115612460575f5ffd5b61246c8c828d01612394565b90955093505060a08a013567ffffffffffffffff81111561248b575f5ffd5b6124978c828d01612394565b915080935050809150509295985092959850929598565b5f5f5f5f608085870312156124c1575f5ffd5b84356124cc81612278565b935060208501356124dc81612278565b93969395505050506040820135916060013590565b5f5f5f5f5f5f5f60e0888a031215612507575f5ffd5b873561251281612278565b9650602088013561252281612278565b9550604088013594506060880135935061253e6080890161237f565b9699959850939692959460a0840135945060c09093013592915050565b5f5f6040838503121561256c575f5ffd5b823561257781612278565b9150602083013561258781612278565b809150509250929050565b600181811c908216806125a657607f821691505b602082108103611f2a57634e487b7160e01b5f52602260045260245ffd5b5f602082840312156125d4575f5ffd5b5051919050565b634e487b7160e01b5f52601160045260245ffd5b81810381811115610615576106156125db565b80820180821115610615576106156125db565b81835281816020850137505f828201602090810191909152601f909101601f19169091010190565b6001600160a01b038a811682528916602082015260ff8816604082015260c0606082018190525f90612672908301888a612615565b8281036080840152612685818789612615565b905082810360a084015261269a818587612615565b9c9b505050505050505050505050565b5f602082840312156126ba575f5ffd5b815161119c81612278565b5f602082840312156126d5575f5ffd5b8151801515811461119c575f5ffd5b634e487b7160e01b5f52604160045260245ffd5b601f821115610a1a57805f5260205f20601f840160051c8101602085101561271d5750805b601f840160051c820191505b81811015610831575f8155600101612729565b815167ffffffffffffffff811115612756576127566126e4565b61276a816127648454612592565b846126f8565b6020601f82116001811461279c575f83156127855750848201515b5f19600385901b1c1916600184901b178455610831565b5f84815260208120601f198516915b828110156127cb57878501518255602094850194600190920191016127ab565b50848210156127e857868401515f19600387901b60f8161c191681555b50505050600190811b01905550565b6001600160781b038281168282160390811115610615576106156125db565b6001600160781b038181168382160190811115610615576106156125db565b6001600160a01b0393909316835260208301919091526001600160781b0316604082015260600190565b634e487b7160e01b5f52602160045260245ffdfe458f5fa412d0f69b08dd84872b0215675cc67bc1d5b6fd93300a1c3878b86196ddf252ad1be2c89b69c2b068fc378daa952ba7f163c4a11628f55a4df523b3efa164736f6c634300081b000a",
    "linkReferences": {}
  },
  "methodIdentifiers": {
    "ATOKEN_REVISION()": "0bd7ad3b",
    "DOMAIN_SEPARATOR()": "3644e515",
    "EIP712_REVISION()": "78160376",
    "PERMIT_TYPEHASH()": "30adf81f",
    "POOL()": "7535d246",
    "RESERVE_TREASURY_ADDRESS()": "ae167335",
    "REWARDS_CONTROLLER()": "cd086d45",
    "TREASURY()": "2d2c5565",
    "UNDERLYING_ASSET_ADDRESS()": "b16a19de",
    "allowance(address,address)": "dd62ed3e",
    "approve(address,uint256)": "095ea7b3",
    "balanceOf(address)": "70a08231",
    "burn(address,address,uint256,uint256,uint256)": "b18d6afd",
    "decimals()": "313ce567",
    "decreaseAllowance(address,uint256)": "a457c2d7",
    "getIncentivesController()": "75d26413",
    "getPreviousIndex(address)": "e0753986",
    "getScaledUserBalanceAndSupply(address)": "0afbcdc9",
    "increaseAllowance(address,uint256)": "39509351",
    "initialize(address,address,uint8,string,string,bytes)": "7fdd585f",
    "mint(address,address,uint256,uint256)": "b3f1c93d",
    "mintToTreasury(uint256,uint256)": "7df5bd3b",
    "name()": "06fdde03",
    "nonces(address)": "7ecebe00",
    "permit(address,address,uint256,uint256,uint8,bytes32,bytes32)": "d505accf",
    "rescueTokens(address,address,uint256)": "cea9d26f",
    "scaledBalanceOf(address)": "1da24f3e",
    "scaledTotalSupply()": "b1bf962d",
    "symbol()": "95d89b41",
    "totalSupply()": "18160ddd",
    "transfer(address,uint256)": "a9059cbb",
    "transferFrom(address,address,uint256)": "23b872dd",
    "transferOnLiquidation(address,address,uint256,uint256,uint256)": "353b7b9a",
    "transferUnderlyingTo(address,uint256)": "4efecaa5"
  },
  "id": 149
}